:100000000C942A000C9434000C9434000C943400AA
:100010000C9434000C9434000C9434000C94340090
:100020000C9434000C9434000C9434000C94340080
:100030000C9434000C9434000C9434000C94340070
:100040000C9447000C9434000C9434000C9434004D
:100050000C94340011241FBECFE5D8E0DEBFCDBF25
:100060000E9436000C9458000C940000D298DA9844
:100070008FEF81BB82E687B98DEE86B980E680BFBF
:100080008BE083BF89EF8CBF78940000FECF1F9276
:100090000F920FB60F9211248F9384B185B182BB5A
:1000A00082E088BF8F910F900FBE0F901F90189520
:0400B000F894FFCFF2
:00000001FF
