:100000000C94C7000C94E4000C94E4000C94E400FD
:100010000C94E4000C94E4000C94E4000C94E400D0
:100020000C94E4000C94E4000C9436030C94E4006B
:100030000C94E4000C94E4000C94E4000C94E400B0
:100040000C94E4000C94E4000C94E4000C94E400A0
:100050000C94E4001F10101010101000040A0A1174
:1000600011111F00040A0A11111111001F00000EC6
:1000700000001F001F11111111111100040E1515A0
:10008000150E0400151515150E0404000E1111119E
:100090000E001F0000407A10F35A00A0724E18099B
:1000A0000010A5D4E80000E87648170000E40B54DF
:1000B000020000CA9A3B000000E1F50500008096AE
:1000C0009800000040420F000000A08601000000E0
:1000D000102700000000E80300000000640000009A
:1000E00000000A00000000000100000000002C7663
:1000F000D888DC674F0823DFC1DFAE59E1B1B7967E
:10010000E5E3E453C63AE651997696E8E6C28426DA
:10011000EB898C9B62ED407C6FFCEFBC9C9F40F2B6
:10012000BAA56FA5F490055A2AF75C936B6CF96732
:100130006DC11BFCE0E40D47FEF520E6B500D0EDF7
:10014000902E0300943577050080841E080000205F
:100150004E0A000000C80C333333330F986E1283FD
:100160001141EF8D2114893BE65516CFFEE6DB18D1
:10017000D1844B381BF77C1D901DA4BBE424203296
:1001800084725E228100C9F124ECA1E53D2711248F
:100190001FBECFE5D8E0DEBFCDBF10E0A0E6B0E0E7
:1001A000EAEEF0E102C005900D92A23BB107D9F74B
:1001B00010E0A2EBB0E001C01D92A63BB107E1F751
:1001C0000E942C010C9473080C94000081E00E94A2
:1001D000D00380E690E00E94720466B577B580E0B7
:1001E00090E00E94D00486E690E00E9472042AB556
:1001F0003BB566B577B584E690E0AC01249FC001BD
:10020000259F900D349F900D11240E94420580E09F
:1002100090E00E94D0048AE690E00E94720481E09F
:1002200060E00E9446048CE690E00E9472046AB589
:100230007BB580E090E00E94D00481E068E00E94FD
:1002400046048FE690E00E94720468B579B580E0BC
:1002500090E00E94D00408952F923F924F925F92B7
:100260006F927F928F929F92AF92BF92CF92DF92C6
:10027000EF92FF920F931F93CF93DF930E94F903A6
:100280000E94B00181B3806381BB82EA8FBD89E1A6
:100290008EBD84E690E097BD86BD80E590E09BBD75
:1002A0008ABD84E190E099BD88BD0E94E600789403
:1002B00069E1262E312C5BE4452E512C40E1642E61
:1002C00047E2742E34EC832E39E0932E2CE4A22ED8
:1002D0002DE1B22EC8EEDDEF91E0C92ED12C87EED4
:1002E000E82E8DEFF82E00E911E08FEF8093870064
:1002F000809187008F3FE1F380918700813041F446
:1003000084E690E097BD86BD3BBC2ABC59BC48BC86
:1003100080918700823031F477BC66BC9BBC8ABC7C
:10032000B9BCA8BC80918700833031F4D7BDC6BD6D
:100330001BBC1ABCD9BDC8BD80918700843031F484
:10034000D7BDC6BDDBBCCABCF9BCE8BC86ED96E037
:10035000F8013197F1F70197D9F70E94E600C5CF70
:1003600087B3806F87BB88B38FEF88BB88B7826005
:1003700088BF89B7826089BF8BE083BF89EF8CBF5C
:10038000789408959FEF9093720090937300982F44
:1003900092959F70A6E7B0E0FD01E90FF11D9081F5
:1003A000909374008F70A80FB11D8C91809375008D
:1003B0000895EF92FF920F931F93282F6AE00E94F7
:1003C0003605E92EFF2430E0C9018E199F096AE045
:1003D00070E00E945605262F862F6AE00E9436059F
:1003E000092F10E030E0C901801B910B6AE070E03A
:1003F0000E9456058FEF80937200A6E7B0E0FD01E2
:10040000E60FF11D8081809373000A0F1B1FF80116
:10041000808180937400AE0DBF1D8C918093750018
:100420001F910F91FF90EF900895CF92DF92EF927E
:10043000FF920F931F939C016AE070E00E944205B7
:10044000C82EDD24C9018C199D096AE070E00E9464
:1004500042059B01CB016AE070E00E944205E82E54
:10046000FF24C9018E199F096AE070E00E944205CD
:100470009B01CB016AE070E00E944205082F10E06A
:10048000C901801B910B6AE070E00E944205CB011C
:100490006AE070E00E944205A6E7B0E0FD01E80FC7
:1004A000F11D8081809372000A0F1B1FF80180816B
:1004B00080937300EA0EFB1EF70180818093740025
:1004C000AC0DBD1D8C91809375001F910F91FF9015
:1004D000EF90DF90CF9008958FEF8093720080931C
:1004E0007300809374008093750008958FEF80935C
:1004F0008700809372008093730080E5809374007E
:1005000080937500809187008F3FE1F320918700F1
:100510002295207F9FEF9093720090937300E22FBB
:10052000E295EF70F0E0EA58FF4F8081809374000D
:10053000809176008093750090938700809187006A
:100540008F3FE1F380918700820F9FEF90938700A8
:100550009093720090937300E82FE295EF70F0E0B3
:10056000EA58FF4F908190937400E82FF0E0EF700D
:10057000F070EA58FF4F9081909375000895FF92B4
:100580000F931F93CF93DF938FEF8093870080E0CB
:100590000E94D90110E0C0E0D0E08AE0F82E0FEF11
:1005A000809187008F3FE1F3809187008A3078F453
:1005B0001F9D102D112480918700180F812F0E94FC
:1005C000D901009387002196C330D10549F7812FC7
:1005D000DF91CF911F910F91FF9008950F931F937B
:1005E000CF93DF938FEF8093870080E090E00E94AD
:1005F0001502C0E0D0E010E00FEF809187008F3F40
:10060000E1F3809187008D3059F1809187008A3025
:1006100069F4CE016AE070E00E944205EB01CB0173
:100620000E9415021123C1F0115016C0809187005D
:100630008A3090F4CE0133E0880F991F3A95E1F7A4
:10064000CC0FDD1FC80FD91F80918700C80FD11DA7
:10065000CE010E9415021F5F00938700143068F2DC
:10066000CE01DF91CF911F910F9108951F920F92AC
:100670000FB60F9211242F938F939F93EF93FF93B5
:100680008FEF88BB9091B400E92FF0E0EE58FF4F58
:1006900080818BBB9F5F9093B4002091980028BB12
:1006A000000086B390E080FD09C08091B300980FF0
:1006B0009093860081E08093B20005C09F5F9430E4
:1006C00011F08695F0CF8091B3008C5F8093B300DA
:1006D000922F990F9F5F909398009F3F01F58FEEA7
:1006E000809398001092B4001092B3002091B20051
:1006F000213029F01092B5009093860010C08091AF
:10070000B500813051F02093B500E0918600F0E013
:10071000E857FF4F8081809387001092B200FF91CD
:10072000EF919F918F912F910F900FBE0F901F907F
:100730001895AF9A85E0982F9A95F1F7AF988A951A
:10074000F1F708951F93182F99B39F70807F892B1D
:100750008BBB0E94990389B31295107F8F70812BF8
:100760008BBB0E9499031F9108950F931F938AB327
:100770008F708ABBA998AE9A05E0AF9A802F8A95B0
:10078000F1F719B3AF98802F8A95F1F70E9499037A
:1007900017FDF3CF8AB3806F8ABB1F910F91089525
:1007A0001F93182F0E94B503A998AE98812F0E941D
:1007B000A2031F9108951F93182F0E94B503A99AB1
:1007C000AE98812F0E94A2031F910895CF93DF93CB
:1007D00080E40E94D003C4E5D0E0FE0184910E9431
:1007E000DB032196F0E0C439DF07B9F7DF91CF9141
:1007F0000895A79AA69AA19A8AB3806F8ABBA998EE
:10080000AE9880E09AEF0197F1F789B38F7080631B
:100810008BBBAF9A20EE31E0C9010197F1F7AF9899
:10082000C9010197F1F780EC92E10197F1F7AF9AD6
:10083000C9010197F1F7AF98C9010197F1F788EB6A
:1008400091E00197F1F7AF9AC9010197F1F7AF98DD
:10085000C9010197F1F789B38F7080628BBBAF9AA2
:10086000C9010197F1F7AF98C9010197F1F78CE23F
:100870000E94D0038CE00E94D00386E00E94D00347
:100880000E94E60381E00E94D0030895823050F474
:10089000603140F460588295880F880F807C860F05
:1008A0000E94D00308950F931F93082F6AE00E94BF
:1008B0003605182F0E943605805D0E94DB03812FCC
:1008C0006AE00E943605892F805D0E94DB03802F3D
:1008D0006AE00E943605892F805D0E94DB031F912C
:1008E0000F9108950F931F93CF93DF938C01C0E076
:1008F000D0E0F801EC0FFD1F8081882369F0882388
:100900002CF4E82FF0E0E852F04080810E94DB03F5
:100910002196C031D10569F7DF91CF911F910F91D9
:100920000895AF92BF92DF92EF92FF920F931F93C1
:10093000DF93CF93CDB7DEB7D42EADB6BEB650E0C1
:100940004F5F5F4FEDB7FEB7E41BF50B0FB6F894A2
:10095000FEBF0FBEEDBFEDB6FEB60894E11CF11C64
:100960004D2D87010E94690510E009C0F701E10FD4
:10097000F11D8081882329F00E94DB031F5F1D1574
:10098000A8F30FB6F894BEBE0FBEADBECF91DF91F7
:100990001F910F91FF90EF90DF90BF90AF9008955F
:1009A000EF92FF920F931F93DF93CF93CDB7DEB7F4
:1009B0002B970FB6F894DEBF0FBECDBF8E010F5F31
:1009C0001F4FA8012AE030E00E94AB058BE0E82E23
:1009D000F12CEC0EFD1EF8018081882339F00E9475
:1009E000DB030F5F1F4F0E151F05A9F72B960FB6E0
:1009F000F894DEBF0FBECDBFCF91DF911F910F9155
:100A0000FF90EF900895EF92FF920F931F93DF9363
:100A1000CF93CDB7DEB727970FB6F894DEBF0FBEE2
:100A2000CDBF8E010F5F1F4FB8014AE050E00E941A
:100A30008A0597E0E92EF12CEC0EFD1EF80180816D
:100A4000882339F00E94DB030F5F1F4F0E151F052F
:100A5000A9F727960FB6F894DEBF0FBECDBFCF9192
:100A6000DF911F910F91FF90EF900895991B79E00E
:100A700004C0991F961708F0961B881F7A95C9F72E
:100A800080950895AA1BBB1B51E107C0AA1FBB1F7D
:100A9000A617B70710F0A61BB70B881F991F5A950A
:100AA000A9F780959095BC01CD01089597FB092E7B
:100AB00007260AD077FD04D0E5DF06D000201AF41F
:100AC000709561957F4F0895F6F7909581959F4FAA
:100AD0000895EF92FF920F931F93F22FF02E47FD90
:100AE00002C0E4E001C0E4E1242F332727FD309564
:100AF00037FF03C0309521953F4F4F2D512F0F2FBA
:100B0000EE2E0E94D0058F2D912F1F910F91FF90F7
:100B1000EF900895FB019F01E8944230C4F0453204
:100B2000B4F44A3029F497FB1EF4909581959F4FB9
:100B3000642F77270E944205805D8A330CF0895D1F
:100B40008193CB010097A1F716F45DE251931082D7
:100B5000C9010C940A08FA01CF93FF93EF93223056
:100B6000CCF02532BCF4C22F2C2F33274427552735
:100B7000FF93EF930E941A08EF91FF91605D6A3333
:100B80000CF0695D6193B901CA016050704080400A
:100B9000904051F710828F919F91CF910C940A0849
:100BA000A9E0B0E0E6EDF5E00C9440086A01122FF0
:100BB000A02EBE2C2BE3201718F42CE3922E02C09B
:100BC000902E9394AE014F5F5F4F27E0092D0E9456
:100BD0003207BC018981E82EFF24C701897090701B
:100BE000019711F4ADE209C0B1FE02C0ABE205C04D
:100BF000B0FC02C0A0E001C0A0E2E3FE3BC0AA231B
:100C000011F423E001C024E0211710F020E002C01D
:100C1000121B212FEB2CB4FE02C0322F0AC0F601AA
:100C2000322F80E202C0819331503323E1F7C20EAC
:100C3000D11CAA2319F0F601A1936F01F601319698
:100C4000E2FE05C09EE4D6019C9381E404C09EE6CA
:100C5000D6019C9381E611968C9391833296DF01A5
:100C6000832F90E202C09D9381508823E1F7E30F28
:100C7000F11D40C0E2FE42C0AA2311F423E001C0EE
:100C800024E0211710F020E002C0121B212FEB2CD2
:100C9000B4FE02C0922F0AC0F601922F80E202C079
:100CA000819391509923E1F7C20ED11CAA2319F028
:100CB000F601A1936F01F6013196E2FE08C089E4C6
:100CC000D6018C938EE411968C9386E407C089E656
:100CD000D6018C938EE611968C9386E681833296AC
:100CE000DF01892F20E202C02D9381508823E1F794
:100CF000E90FF11D10822EEF3FEFAFC01616170659
:100D00001CF041E050E003C0AB014F5F5F4FAA20F1
:100D100019F480E090E003C08A2D90E0019620E075
:100D200030E0AA2311F021E030E0240F351F280F16
:100D3000391F812F90E02817390714F020E002C0F6
:100D4000121B212F4B2D50E0CA0180719070B4FC12
:100D50000DC0B3FC0BC0F601322F40E202C041933C
:100D600031503323E1F7C20ED11C01C0322FAA2328
:100D700019F0F601A1936F01892B11F0132F0AC00E
:100D8000F601132F80E302C0819311501123E1F784
:100D9000C30ED11C092D060FBA8090E1892E912C2B
:100DA0008E209F20E4FE04C0F1E3BF1609F4015039
:100DB000101614F001E003C0093008F008E09B01B0
:100DC00077FF02C020E030E0CB010196821B930B3D
:100DD000FE013196E80FF91F8EE2F82E3B01601AF2
:100DE00071088A2D90E044275527481B590B8FEF37
:100DF0002F3F380719F4D601FD926D016217730772
:100E00002CF06216730614F4808101C080E3215037
:100E1000304031962417350724F0D6018D936D01AB
:100E2000E6CF2617370749F4B5E3BB1528F0BB1604
:100E300021F48114910409F481E3F6018193D60130
:100E4000812F90E202C09C93815011968823D9F79C
:100E5000E10FF11D108220E030E0C9012996EEE09B
:100E60000C945C08283008F027E03327DA01990F4A
:100E7000311D87FD916000966105710539F432607E
:100E80002E5F3D9330E32A95E1F708959F3F30F0C0
:100E900080387105610509F03C5F3C5F3D939130FE
:100EA00008F08068911DDF93CF931F930F93FF92FB
:100EB000EF92192F987F9695E92F96959695E90FC1
:100EC000FF27E251FF4F99273327EE24FF24A70184
:100ED000E70105900894079428F4360FE71EF81EE2
:100EE000491F511D660F771F881F991F0694A1F790
:100EF0000590079428F4E70EF81E491F561FC11DE0
:100F0000770F881F991F661F0694A1F70590079415
:100F100028F4F80E491F561FC71FD11D880F991FAF
:100F2000661F771F0694A1F70590079420F4490FD8
:100F3000561FC71FD81F990F661F771F881F06945B
:100F4000A9F784911095177041F0D695C7955795DC
:100F50004795F794E7941A95C1F7E4E9F0E06894AF
:100F60001590159135916591959105907FE2739556
:100F7000E118F10A430B560BC90BD009C0F7E10C7D
:100F8000F11E431F561FC91FD01D7EF4703311F48C
:100F90008A95E6CFE894015030F0080F0AF4002754
:100FA000021708F4202F2395022F7A3328F079E3D3
:100FB0007D932A95E9F710C07D932A9589F60694CA
:100FC00097956795379517951794E118F10A430B94
:100FD000560BC90BD00998F023957E9173957A33FF
:100FE00008F070E37C932013B8F77E9170617D93D5
:100FF00030F0839571E37D9370E32A95E1F7112436
:10100000EF90FF900F911F91CF91DF91992787FD6E
:1010100090950895DC01FC01672F71917723E1F72A
:10102000329704C07C916D9370836291AE17BF07B5
:10103000C8F30895A1E21A2EAA1BBB1BFD010DC027
:10104000AA1FBB1FEE1FFF1FA217B307E407F50778
:1010500020F0A21BB30BE40BF50B661F771F881F54
:10106000991F1A9469F760957095809590959B01EA
:10107000AC01BD01CF0108952F923F924F925F9234
:101080006F927F928F929F92AF92BF92CF92DF9298
:10109000EF92FF920F931F93CF93DF93CDB7DEB7FD
:1010A000CA1BDB0B0FB6F894DEBF0FBECDBF099491
:1010B0002A88398848885F846E847D848C849B84E8
:1010C000AA84B984C884DF80EE80FD800C811B81F6
:1010D000AA81B981CE0FD11D0FB6F894DEBF0FBE25
:0A10E000CDBFED010895F894FFCF95
:1010EA00494352313D002C443D002500413D004218
:1010FA003D00FFFFFFFF505F32161D94905E1014F3
:10110A001891F013B0B8FFFF0D0C0B0A0F09060374
:10111A00000805020E070401EF41420809455A4832
:10112A00F2494B0A4D4E0B4F0C50F6F654590D58D6
:02113A000E0F96
:00000001FF
