:100000000C94C7000C94E4000C94E4000C94E400FD
:100010000C94E4000C94E4000C94E4000C94E400D0
:100020000C94E4000C94E4000C946C020C94E40036
:100030000C94E4000C94E4000C94E4000C94E400B0
:100040000C94E4000C94E4000C94E4000C94E400A0
:100050000C94E4001F10101010101000040A0A1174
:1000600011111F00040A0A11111111001F00000EC6
:1000700000001F001F11111111111100040E1515A0
:10008000150E0400151515150E0404000E1111119E
:100090000E001F0000407A10F35A00A0724E18099B
:1000A0000010A5D4E80000E87648170000E40B54DF
:1000B000020000CA9A3B000000E1F50500008096AE
:1000C0009800000040420F000000A08601000000E0
:1000D000102700000000E80300000000640000009A
:1000E00000000A00000000000100000000002C7663
:1000F000D888DC674F0823DFC1DFAE59E1B1B7967E
:10010000E5E3E453C63AE651997696E8E6C28426DA
:10011000EB898C9B62ED407C6FFCEFBC9C9F40F2B6
:10012000BAA56FA5F490055A2AF75C936B6CF96732
:100130006DC11BFCE0E40D47FEF520E6B500D0EDF7
:10014000902E0300943577050080841E080000205F
:100150004E0A000000C80C333333330F986E1283FD
:100160001141EF8D2114893BE65516CFFEE6DB18D1
:10017000D1844B381BF77C1D901DA4BBE424203296
:1001800084725E228100C9F124ECA1E53D2711248F
:100190001FBECFE5D8E0DEBFCDBF10E0A0E6B0E0E7
:1001A000EEE8F0E102C005900D92A03AB107D9F750
:1001B00010E0A0EAB0E001C01D92A43AB107E1F757
:1001C0000E94BC040C9445080C94000087B3806F17
:1001D00087BB88B38FEF88BB88B7826088BF89B739
:1001E000826089BF8BE083BF89EF8CBF78940895CC
:1001F0009FEF9093600090936100982F92959F706D
:10020000A4E6B0E0FD01E90FF11D9081909362003A
:100210008F70A80FB11D8C91809363000895EF92A9
:10022000FF920F931F93282F6AE00E940805E92E82
:10023000FF2430E0C9018E199F096AE070E00E9436
:100240002805262F862F6AE00E940805092F10E056
:1002500030E0C901801B910B6AE070E00E94280524
:100260008FEF80936000A4E6B0E0FD01E60FF11D82
:100270008081809361000A0F1B1FF80180818093A9
:100280006200AE0DBF1D8C91809363001F910F9192
:10029000FF90EF900895CF92DF92EF92FF920F932D
:1002A0001F939C016AE070E00E941405C82EDD24B3
:1002B000C9018C199D096AE070E00E9414059B0138
:1002C000CB016AE070E00E941405E82EFF24C9010A
:1002D0008E199F096AE070E00E9414059B01CB0112
:1002E0006AE070E00E941405082F10E0C901801B2D
:1002F000910B6AE070E00E941405CB016AE070E0A7
:100300000E941405A4E6B0E0FD01E80FF11D808114
:10031000809360000A0F1B1FF801808180936100A9
:10032000EA0EFB1EF701808180936200AC0DBD1DBB
:100330008C91809363001F910F91FF90EF90DF905D
:10034000CF9008958FEF8093600080936100809339
:1003500062008093630008958FEF8093750080930F
:1003600060008093610080E5809362008093630069
:10037000809175008F3FE1F3209175002295207FD9
:100380009FEF9093600090936100E22FE295EF70F1
:10039000F0E0EC59FF4F808180936200809164000F
:1003A0008093630090937500809175008F3FE1F317
:1003B00080917500820F9FEF90937500909360007D
:1003C00090936100E82FE295EF70F0E0EC59FF4F59
:1003D000908190936200E82FF0E0EF70F070EC599C
:1003E000FF4F9081909363000895FF920F931F93A6
:1003F000CF93DF938FEF8093750080E00E940F0111
:1004000010E0C0E0D0E08AE0F82E0FEF8091750098
:100410008F3FE1F3809175008A3078F41F9D102D95
:10042000112480917500180F812F0E940F010093F5
:1004300075002196C330D10549F7812FDF91CF9107
:100440001F910F91FF9008950F931F93CF93DF9308
:100450008FEF8093750080E090E00E944B01C0E038
:10046000D0E010E00FEF809175008F3FE1F38091B5
:1004700075008D3059F1809175008A3069F4CE0194
:100480006AE070E00E941405EB01CB010E944B0171
:100490001123C1F0115016C0809175008A3090F47C
:1004A000CE0133E0880F991F3A95E1F7CC0FDD1F9D
:1004B000C80FD91F80917500C80FD11DCE010E94B1
:1004C0004B011F5F00937500143068F2CE01DF917D
:1004D000CF911F910F9108951F920F920FB60F9217
:1004E00011242F938F939F93EF93FF938FEF88BBEC
:1004F0009091A200E92FF0E0E05AFF4F80818BBB82
:100500009F5F9093A2002091860028BB000086B3D5
:1005100090E080FD09C08091A100980F9093740035
:1005200081E08093A00005C09F5F943011F0869514
:10053000F0CF8091A1008C5F8093A100922F990F42
:100540009F5F909386009F3F01F58FEE809386001A
:100550001092A2001092A1002091A000213029F059
:100560001092A3009093740010C08091A30081307A
:1005700051F02093A300E0917400F0E0EA58FF4F9F
:100580008081809375001092A000FF91EF919F9160
:100590008F912F910F900FBE0F901F901895AF9ACB
:1005A00081E0982F9A95F1F7AF988A95F1F7089521
:1005B0001F93182F99B39F70807F892B8BBB0E944C
:1005C000CF0289B31295107F8F70812B8BBB0E9455
:1005D000CF021F9108950F931F938AB38F708ABB28
:1005E000A998AE9A01E0AF9A802F8A95F1F719B3D6
:1005F000AF98802F8A95F1F70E94CF0217FDF3CFB5
:100600008AB3806F8ABB1F910F9108951F93182F93
:100610000E94EB02A998AE98812F0E94D8021F91E8
:1006200008951F93182F0E94EB02A99AAE98812F6C
:100630000E94D8021F910895CF93DF9380E40E9417
:100640000603C4E5D0E0FE0184910E9411032196C7
:10065000F0E0C439DF07B9F7DF91CF910895A79A89
:10066000A69AA19A8AB3806F8ABBA998AE9880EAAD
:100670009FE00197F1F789B38F7080638BBBAF9ACE
:1006800098E2892F8A95F1F7AF98892F8A95F1F72B
:10069000ECE2F1E03197F1F7AF9A892F8A95F1F703
:1006A000AF98892F8A95F1F784E28A95F1F7AF9A8E
:1006B000892F8A95F1F7AF98892F8A95F1F789B339
:1006C0008F7080628BBBAF9A892F8A95F1F7AF98B4
:1006D0009A95F1F78CE20E9406038CE00E940603D3
:1006E00086E00E9406030E941C0381E00E9406032C
:1006F0000895823050F4603140F460588295880F3C
:10070000880F807C860F0E94060308950F931F9325
:10071000082F6AE00E940805182F0E940805805DD6
:100720000E941103812F6AE00E940805892F805DD5
:100730000E941103802F6AE00E940805892F805DC6
:100740000E9411031F910F9108950F931F93CF9350
:10075000DF938C01C0E0D0E0F801EC0FFD1F808139
:10076000882369F088232CF4E82FF0E0EA53F04066
:1007700080810E9411032196C031D10569F7DF9174
:10078000CF911F910F910895A79AA69AA19A8AB323
:10079000806F8ABBA998AE9880EA9FE00197F1F735
:1007A00089B38F7080638BBBAF9A98E2892F8A954B
:1007B000F1F7AF98892F8A95F1F7ECE2F1E03197E4
:1007C000F1F7AF9A892F8A95F1F7AF98892F8A951B
:1007D000F1F784E28A95F1F7AF9A892F8A95F1F7BC
:1007E000AF98892F8A95F1F789B38F7080628BBBA0
:1007F000AF9A892F8A95F1F7AF989A95F1F78CE225
:100800000E9406038CE00E94060386E00E94060315
:100810000E941C0381E00E9406030895AF92BF92DC
:10082000DF92EF92FF920F931F93DF93CF93CDB799
:10083000DEB7D42EADB6BEB650E04F5F5F4FEDB71A
:10084000FEB7E41BF50B0FB6F894FEBF0FBEEDBF6D
:10085000EDB6FEB60894E11CF11C4D2D87010E94F7
:100860003B0510E009C0F701E10FF11D80818823ED
:1008700029F00E9411031F5F1D15A8F30FB6F8940D
:10088000BEBE0FBEADBECF91DF911F910F91FF9005
:10089000EF90DF90BF90AF900895EF92FF920F938B
:1008A0001F93DF93CF93CDB7DEB72B970FB6F89496
:1008B000DEBF0FBECDBF8E010F5F1F4FA8012AE024
:1008C00030E00E947D058BE0E82EF12CEC0EFD1E41
:1008D000F8018081882339F00E9411030F5F1F4FB8
:1008E0000E151F05A9F72B960FB6F894DEBF0FBEA5
:1008F000CDBFCF91DF911F910F91FF90EF900895A1
:10090000EF92FF920F931F93DF93CF93CDB7DEB794
:1009100027970FB6F894DEBF0FBECDBF8E010F5FD5
:100920001F4FB8014AE050E00E945C0597E0E92EB5
:10093000F12CEC0EFD1EF8018081882339F00E9415
:1009400011030F5F1F4F0E151F05A9F727960FB64E
:10095000F894DEBF0FBECDBFCF91DF911F910F91F5
:10096000FF90EF900895899A909810BC19B888E18B
:100970008AB986EA80BD08950E94B3045F9BFECFCA
:100980008CB15D9BFECF8CB9F9CF5D9BFECF8CB94E
:1009900008955F9BFECF8CB10895FC015F9BFECF55
:1009A0009BB18CB19C719083089520E030E0FC01F4
:1009B000E20FF31FE081EE23A9F0ED3011F0EA30F1
:1009C00049F45D9BFECF8DE08CB95D9BFECF8AE044
:1009D0008CB908955D9BFECFECB92F5F3F4F24315A
:1009E000310529F7089520E030E05F9BFECF4CB140
:1009F000FC01E20FF31F4083442349F04D3039F0EE
:100A00004A3029F02F5F3F4F2431310571F70895A7
:100A1000991B79E004C0991F961708F0961B881F50
:100A20007A95C9F780950895AA1BBB1B51E107C0B1
:100A3000AA1FBB1FA617B70710F0A61BB70B881F6E
:100A4000991F5A95A9F780959095BC01CD010895FD
:100A500097FB092E07260AD077FD04D0E5DF06D0E4
:100A600000201AF4709561957F4F0895F6F79095E0
:100A700081959F4F0895EF92FF920F931F93F22F4E
:100A8000F02E47FD02C0E4E001C0E4E1242F33274B
:100A900027FD309537FF03C0309521953F4F4F2DEF
:100AA000512F0F2FEE2E0E94A2058F2D912F1F91F7
:100AB0000F91FF90EF900895FB019F01E894423061
:100AC000C4F04532B4F44A3029F497FB1EF49095F3
:100AD00081959F4F642F77270E941405805D8A338C
:100AE0000CF0895D8193CB010097A1F716F45DE2CC
:100AF00051931082C9010C94DC07FA01CF93FF9344
:100B0000EF932230CCF02532BCF4C22F2C2F3327A8
:100B100044275527FF93EF930E94EC07EF91FF9135
:100B2000605D6A330CF0695D6193B901CA01605080
:100B300070408040904051F710828F919F91CF91EB
:100B40000C94DC07A9E0B0E0E8EAF5E00C941208A8
:100B50006A01122FA02EBE2C2BE3201718F42CE3D1
:100B6000922E02C0902E9394AE014F5F5F4F27E00C
:100B7000092D0E940407BC018981E82EFF24C701CA
:100B800089709070019711F4ADE209C0B1FE02C006
:100B9000ABE205C0B0FC02C0A0E001C0A0E2E3FEF1
:100BA0003BC0AA2311F423E001C024E0211710F078
:100BB00020E002C0121B212FEB2CB4FE02C0322F0A
:100BC0000AC0F601322F80E202C0819331503323F4
:100BD000E1F7C20ED11CAA2319F0F601A1936F010F
:100BE000F6013196E2FE05C09EE4D6019C9381E4B5
:100BF00004C09EE6D6019C9381E611968C93918366
:100C00003296DF01832F90E202C09D9381508823AA
:100C1000E1F7E30FF11D40C0E2FE42C0AA2311F448
:100C200023E001C024E0211710F020E002C0121BD5
:100C3000212FEB2CB4FE02C0922F0AC0F601922F96
:100C400080E202C0819391509923E1F7C20ED11C3A
:100C5000AA2319F0F601A1936F01F6013196E2FE85
:100C600008C089E4D6018C938EE411968C9386E4B7
:100C700007C089E6D6018C938EE611968C9386E6A2
:100C800081833296DF01892F20E202C02D938150AB
:100C90008823E1F7E90FF11D10822EEF3FEFAFC07F
:100CA000161617061CF041E050E003C0AB014F5F81
:100CB0005F4FAA2019F480E090E003C08A2D90E0F5
:100CC000019620E030E0AA2311F021E030E0240F6B
:100CD000351F280F391F812F90E02817390714F08E
:100CE00020E002C0121B212F4B2D50E0CA01807161
:100CF0009070B4FC0DC0B3FC0BC0F601322F40E283
:100D000002C0419331503323E1F7C20ED11C01C020
:100D1000322FAA2319F0F601A1936F01892B11F04C
:100D2000132F0AC0F601132F80E302C081931150E4
:100D30001123E1F7C30ED11C092D060FBA8090E1F3
:100D4000892E912C8E209F20E4FE04C0F1E3BF1673
:100D500009F40150101614F001E003C0093008F046
:100D600008E09B0177FF02C020E030E0CB01019654
:100D7000821B930BFE013196E80FF91F8EE2F82ECD
:100D80003B01601A71088A2D90E044275527481BC3
:100D9000590B8FEF2F3F380719F4D601FD926D01E3
:100DA000621773072CF06216730614F4808101C079
:100DB00080E32150304031962417350724F0D601C6
:100DC0008D936D01E6CF2617370749F4B5E3BB15C0
:100DD00028F0BB1621F48114910409F481E3F60193
:100DE0008193D601812F90E202C09C93815011968D
:100DF0008823D9F7E10FF11D108220E030E0C9010E
:100E00002996EEE00C942E08283008F027E03327CE
:100E1000DA01990F311D87FD91600096610571051A
:100E200039F432602E5F3D9330E32A95E1F708955F
:100E30009F3F30F080387105610509F03C5F3C5FF1
:100E40003D93913008F08068911DDF93CF931F93FD
:100E50000F93FF92EF92192F987F9695E92F969511
:100E60009695E90FFF27E251FF4F99273327EE248C
:100E7000FF24A701E70105900894079428F4360F92
:100E8000E71EF81E491F511D660F771F881F991F07
:100E90000694A1F70590079428F4E70EF81E491F61
:100EA000561FC11D770F881F991F661F0694A1F753
:100EB0000590079428F4F80E491F561FC71FD11D2F
:100EC000880F991F661F771F0694A1F70590079456
:100ED00020F4490F561FC71FD81F990F661F771F91
:100EE000881F0694A9F784911095177041F0D69544
:100EF000C79557954795F794E7941A95C1F7E4E994
:100F0000F0E0689415901591359165919591059053
:100F10007FE27395E118F10A430B560BC90BD00918
:100F2000C0F7E10CF11E431F561FC91FD01D7EF4F0
:100F3000703311F48A95E6CFE894015030F0080F31
:100F40000AF40027021708F4202F2395022F7A3382
:100F500028F079E37D932A95E9F710C07D932A95CF
:100F600089F6069497956795379517951794E11824
:100F7000F10A430B560BC90BD00998F023957E91CB
:100F800073957A3308F070E37C932013B8F77E9161
:100F900070617D9330F0839571E37D9370E32A95C2
:100FA000E1F71124EF90FF900F911F91CF91DF9106
:100FB000992787FD90950895DC01FC01672F7191B9
:100FC0007723E1F7329704C07C916D93708362912F
:100FD000AE17BF07C8F30895A1E21A2EAA1BBB1BC8
:100FE000FD010DC0AA1FBB1FEE1FFF1FA217B307F5
:100FF000E407F50720F0A21BB30BE40BF50B661F0B
:10100000771F881F991F1A9469F7609570958095CE
:1010100090959B01AC01BD01CF0108952F923F92A5
:101020004F925F926F927F928F929F92AF92BF92F8
:10103000CF92DF92EF92FF920F931F93CF93DF93A4
:10104000CDB7DEB7CA1BDB0B0FB6F894DEBF0FBE01
:10105000CDBF09942A88398848885F846E847D844E
:101060008C849B84AA84B984C884DF80EE80FD8050
:101070000C811B81AA81B981CE0FD11D0FB6F894C6
:0E108000DEBF0FBECDBFED010895F894FFCF87
:10108E00FFFFFFFF505F32161D94905E10141891F3
:10109E00F013B0B8FFFF0D0C0B0A0F090603000882
:1010AE0005020E070401EF41420809455A48F2496C
:1010BE004B0A4D4E0B4F0C50F6F654590D580E0F61
:00000001FF
